:100000000C945B010C948C010C948C010C948C016D
:100010000C948C010C948C010C948C010C948C012C
:100020000C948C010C948C010C948C010C948C011C
:100030000C948C010C948C010C948C010C948C010C
:100040000C948C010C948C010C948C010C948C01FC
:100050000C948C010C948C010C948C010C9418065B
:100060000C948C010C948C060C9462060C948C01FC
:100070000C948C010C948C010C948C010C948C01CC
:100080000C948C010C948C010C948C010C94C20681
:100090000C948C010C948C010C948C010C948C01AC
:1000A0000C948C010C948C010C948C010C948C019C
:1000B0000C948C010C948C010C948C010C948C018C
:1000C0000C948C010C948C010C948C010C948C017C
:1000D0000C948C010C948C010C948C010C948C016C
:1000E0000C948C0105A84CCDB2D44EB93836A90277
:1000F0000C50B9918688083CA6AAAA2ABE00000026
:10010000803F0C9491020C9429020C9409020C94E7
:1001100000020C94C9020C94DD010C94F8010C94BB
:100120002F020C94D8020C9494040C945F030C944A
:10013000F4010C949B020C94B5020C94DA070C9415
:1001400013020C94BF020C940F030C944B030C94F9
:10015000EC020C9478020C94F2030C9421020C949F
:10016000A5030C9400030C94E2010C943C030C9442
:100170000D020C9470020C9417020C9487020C94DC
:10018000E2020C9425020C946D030C94F6020C947C
:10019000FC010C9433020C94A3020C941B020C94EB
:1001A0000A030C9403020C94AB020C947D02000031
:1001B0000A0B02090C0D0E080703040100000000E1
:1001C000000000000000000000000000000000002F
:1001D00000000000000000000000121110000000EC
:1001E000000000000000000000000000000000000F
:1001F0000000000000002200250028002B002E0037
:100200003100340002010000050108010B0100006B
:100210002100240027002A002D00300033000101B6
:100220000000040107010A01050505050705080886
:100230000808020202020A0A080804040404010170
:100240000101010101010303030303030303040785
:1002500007070C0C0C0C0C0C0C0C0202020206061C
:100260000606060606060B0B0B0B0B0B0B0B01020F
:1002700010202008081020401020408002010201B8
:100280000804020101020408102040808040201070
:1002900008040201800402018040201008040201C9
:1002A0000804020101020408102040800102040831
:1002B00010204080DA0711241FBECFEFD1E2DEBF4D
:1002C000CDBF00E00CBF12E0A0E0B2E0ECE0F6E150
:1002D00000E00BBF02C007900D92A232B107D9F720
:1002E00022E0A2E2B2E001C01D92A13DB207E1F717
:1002F00011E0CBE5D1E000E006C021970109802F95
:10030000FE010E94FC0ACA35D10780E00807A9F760
:100310000E94ED060C94040B0C94000090E0FC018C
:10032000E259FD4F2491885D9D4FFC018491882303
:1003300099F090E0880F991FFC01E25FFD4FA591B5
:10034000B491FC01EC50FE4F859194918FB7F894D5
:10035000EC91E22BEC938FBF0895282F30E0F90148
:10036000E255FE4F9491F901E259FD4F4491285D09
:100370003D4FF9012491222309F435C0992311F14D
:1003800091509231F8F4E92FF0E08827E553FE4FC1
:100390008F4F0C94FC0AFC010002DD01F401F8010E
:1003A000E201030209020D02130217021B022102DD
:1003B0002502E20129022F023302809180008F770B
:1003C00080938000E22FF0E0EE0FFF1FEC50FE4F15
:1003D000A591B4918FB7F894EC91611148C0409504
:1003E0004E234C938FBF0895809180008F7DE8CF7E
:1003F00080918000877FE4CF84B58F7784BDE2CF82
:1004000084B58F7DFBCF8091B0008F778093B00053
:10041000D9CF8091B0008F7DF9CF809190008F77F8
:1004200080939000CFCF809190008F7DF9CF809105
:100430009000877FF5CF8091A0008F778093A000F8
:10044000C1CF8091A0008F7DF9CF8091A000877FE0
:10045000F5CF809120018F7780932001B3CF8091D9
:1004600020018F7DF9CF80912001877FF5CF4E2B22
:10047000B8CF1F93CF93DF93182FEB010E948E010B
:10048000209739F460E0812FDF91CF911F910C9478
:10049000AD01CF3FD10511F461E0F5CFE12FF0E0E0
:1004A000E255FE4FE491E150E23108F0B3C0F0E0D4
:1004B0008827E25AFD4F8F4F0C94FC0A7002780295
:1004C0007D02870291020A039B02A302AB02B502DE
:1004D000BF02C902D802E2020A03EC02F6020003DC
:1004E00084B5806884BDC7BDDF91CF911F91089509
:1004F00084B5806284BDC8BDF7CF809180008068DC
:1005000080938000D0938900C0938800EDCF8091C4
:100510008000806280938000D0938B00C0938A001B
:10052000E3CF80918000886080938000D0938D001D
:10053000C0938C00D9CF8091B00080688093B000C8
:10054000C093B300D1CF8091B00080628093B0009F
:10055000C093B400C9CF80919000806880939000D0
:10056000D0939900C0939800BFCF80919000806293
:1005700080939000D0939B00C0939A00B5CF809158
:100580009000886080939000D0939D00C0939C0061
:10059000ABCF8091A00080688093A0008091A000E4
:1005A0008F7B8093A000D093A900C093A8009CCF1C
:1005B0008091A00080628093A000D093AB00C09394
:1005C000AA0092CF8091A00088608093A000D09371
:1005D000AD00C093AC0088CF8091200180688093EB
:1005E0002001D0932901C09328017ECF8091200162
:1005F000806280932001D0932B01C0932A0174CF95
:1006000080912001886080932001D0932D01C093B8
:100610002C016ACFC038D1050CF03ECF33CFAF925A
:10062000BF92CF92DF92EF92FF920F931F93CF93DF
:10063000DF936C017B018B01040F151FEB015E0141
:10064000AE18BF08C017D10759F06991D601ED91D6
:10065000FC910190F081E02DC6011995892B79F765
:10066000C501DF91CF911F910F91FF90EF90DF9027
:10067000CF90BF90AF900895FC01538D448D252FEE
:1006800030E0842F90E0821B930B541710F0CF962C
:10069000089501970895FC01918D828D981761F05E
:1006A000A28DAE0FBF2FB11D5D968C91928D9F5F75
:1006B0009F73928F90E008958FEF9FEF0895FC0154
:1006C000918D828D981731F0828DE80FF11D858D07
:1006D00090E008958FEF9FEF0895FC01918D228D9A
:1006E000892F90E0805C9F4F821B91098F7399271F
:1006F000089584E392E00E946D0321E0892B09F4C0
:1007000020E0822F0895FC01A48DA80FB92FB11D00
:10071000A35ABF4F2C91848D90E001968F73992737
:10072000848FA689B7892C93A089B1898C91837015
:1007300080648C93938D848D981306C00288F3890E
:10074000E02D80818F7D80830895EF92FF920F933B
:100750001F93CF93DF93EC0181E0888F9B8D8C8D6D
:1007600098131AC0E889F989808185FF15C09FB761
:10077000F894EE89FF896083E889F9898081837024
:10078000806480839FBF81E090E0DF91CF911F91D3
:100790000F91FF90EF900895F62E0B8D10E00F5FF4
:1007A0001F4F0F731127E02E8C8D8E110CC00FB6CA
:1007B00007FCFACFE889F989808185FFF5CFCE0162
:1007C0000E948303F1CFEB8DEC0FFD2FF11DE35A57
:1007D000FF4FF0829FB7F8940B8FEA89FB898081E5
:1007E0008062CFCFCF93DF93EC01888D8823B9F05F
:1007F000AA89BB89E889F9898C9185FD03C080812C
:1008000086FD0DC00FB607FCF7CF8C9185FFF2CFA8
:10081000808185FFEDCFCE010E948303E9CFDF9178
:10082000CF91089580E090E0892B29F00E94790310
:1008300081110E94000080E090E0892B49F080E067
:1008400090E0892B29F00E94000081110E94000095
:1008500080E090E0892B49F080E090E0892B29F03E
:100860000E94000081110E94000080E090E0892B2E
:1008700049F080E090E0892B29F00E94000081116E
:100880000C9400000895FC0101900020E9F73197D5
:10089000AF01481B590BBC0184E392E00C940F0399
:1008A0008F929F92AF92BF920F931F93CF93DF933C
:1008B000CDB7DEB7A1970FB6F894DEBF0FBECDBFA0
:1008C00019A2423008F44AE08E010F5D1F4F842EBA
:1008D000912CB12CA12CA50194010E94DA0AE62FDB
:1008E000B901CA01EA30F4F4E05DD801EE938D015C
:1008F000232B242B252B79F790E080E0109719F01B
:10090000CD010E944304A1960FB6F894DEBF0FBE3E
:10091000CDBFDF91CF911F910F91BF90AF909F906E
:100920008F900895E95CE1CF4F925F926F927F9232
:100930008F929F92AF92BF92CF92DF92EF92FF92EF
:1009400088EE93E0909325028093240280917B00AF
:10095000877F80937B0080E480937C0080917A0085
:10096000806480937A0080917A0086FDFCCF90911C
:1009700078008091790089279827892797FD039629
:10098000959587959595879590932302809322025C
:100990002091240230912502829FB001839F700D27
:1009A000929F700D1124072E000C880B990B0E944A
:1009B000230922E93AE046E050E40E9408080E9438
:1009C000450A20E030E040E85FE30E9408089B0110
:1009D000AC010E9408089B01AC0160E070E080EA75
:1009E00090E40E9479086B017C014B015C01AC0131
:1009F0009B010E944D0A882309F486C082E192E09F
:100A00000E9443048EE192E00E944304209122025E
:100A1000309123028091240290912502289FB001F9
:100A2000299F700D389F700D1124072E000C880B24
:100A3000990B0E9423096B017C0122E93AE046E808
:100A400050E40E9408080E94450A20E030E040E897
:100A50005FE30E9408089B01AC010E9408089B010B
:100A6000AC0160E070E080EA90E40E9479080E94A6
:100A7000EB088AE00E94390222E93AE046E050E4BD
:100A8000C701B6010E9408080E94450A20E030E034
:100A900040E85FE30E9408089B01AC010E9408083F
:100AA0009B01AC0160E070E080EA90E40E9479086C
:100AB0000E94EB0889E00E943902C701B6010E943A
:100AC000450A20E030E040E85FE30E9408089B010F
:100AD000AC010E9408089B01AC0160E070E080EA74
:100AE00090E40E9479080E94EB0888E0FF90EF9064
:100AF000DF90CF90BF90AF909F908F907F906F903E
:100B00005F904F900C94390226013701E89477F8F2
:100B10002FEF3FEF4FE75FE7C301B2010E944D0A9D
:100B200081110DC02FEF3FEF4FE75FE7C301B20127
:100B30000E94740818161CF486E192E061CF2FEF32
:100B40003FEF4FE75FE4C701B6010E94D3091816D3
:100B50001CF48AE192E054CF2FEF3FEF4FE75FECB8
:100B6000C701B6010E94740887FDF3CF20E030E092
:100B7000A901C701B6010E94740887FF0BC06DE28E
:100B800084E392E00E94A50346015701B7FAB094AE
:100B9000B7F8B0942AE037ED43EA5BE3C501B4014E
:100BA0000E9408084B015C010E94F2086B017C0165
:100BB0000E9421099B01AC01C501B4010E940708F4
:100BC0004B015C014AE0C701B6010E9450046EE28D
:100BD00084E392E00E94A50320E030E040E251E48B
:100BE000C501B4010E94D8094B015C010E94F208C2
:100BF0006B01F12CE12C4AE0C701B6010E945004C0
:100C0000C701B6010E9421099B01AC01C501B401D5
:100C10000E94070820E030E040E251E40E94D80939
:100C20000E94F20890E080E04AE00E945004EACE80
:100C30001F920F920FB60F9211242F933F938F9311
:100C40009F93AF93BF938091300290913102A09116
:100C50003202B091330230912F0223E0230F2D375F
:100C600058F50196A11DB11D20932F0280933002EB
:100C700090933102A0933202B093330280912B0201
:100C800090912C02A0912D02B0912E020196A11DEF
:100C9000B11D80932B0290932C02A0932D02B09350
:100CA0002E02BF91AF919F918F913F912F910F9005
:100CB0000FBE0F901F90189526E8230F0296A11DD6
:100CC000B11DD2CF1F920F920FB60F9211240BB607
:100CD0000F922F933F934F935F936F937F938F93D5
:100CE0009F93AF93BF93EF93FF9384E392E00E94AF
:100CF0008303FF91EF91BF91AF919F918F917F916E
:100D00006F915F914F913F912F910F900BBE0F907C
:100D10000FBE0F901F9018951F920F920FB60F9253
:100D200011240BB60F922F938F939F93EF93FF9302
:100D3000E0914402F09145028081E0914A02F091F5
:100D40004B0282FD1DC0908180914D028F5F8F7399
:100D500020914E02821741F0E0914D02F0E0EC5CF0
:100D6000FD4F958F80934D02FF91EF919F918F9151
:100D70002F910F900BBE0F900FBE0F901F901895E4
:100D80008081F2CF1F920F920FB60F9211240BB6F3
:100D90000F922F933F934F935F936F937F938F9314
:100DA0009F93AF93BF93EF93FF93E0912902F0914C
:100DB0002A021995FF91EF91BF91AF919F918F9169
:100DC0007F916F915F914F913F912F910F900BBE4B
:100DD0000F900FBE0F901F901895789484B5826085
:100DE00084BD84B5816084BD85B5826085BD85B5CF
:100DF000816085BD80916E00816080936E0010924D
:100E000081008091810082608093810080918100C7
:100E10008160809381008091800081608093800058
:100E20008091B10084608093B1008091B0008160B6
:100E30008093B000809191008260809391008091B6
:100E400091008160809391008091900081608093F7
:100E500090008091A10082608093A1008091A10008
:100E600081608093A1008091A00081608093A000A8
:100E70008091210182608093210180912101816014
:100E800080932101809120018160809320018091D5
:100E90007A00846080937A0080917A0082608093E7
:100EA0007A0080917A00816080937A0080917A0044
:100EB000806880937A001092C10088E00E948E01C1
:100EC00060E088E00E94AD0189E00E948E0160E050
:100ED00089E00E94AD018AE00E948E0160E08AE014
:100EE0000E94AD01E0914402F091450282E08083CE
:100EF000E0914002F09141021082E0914202F091B3
:100F000043028FEC808310924C02E0914802F091F2
:100F1000490286E08083E0914602F0914702808199
:100F200080618083E0914602F09147028081886071
:100F30008083E0914602F09147028081806880833F
:100F4000E0914602F091470280818F7D808380E1AD
:100F5000D82E92E0E92E00E117E2C4E9D4E0FF24A4
:100F6000F39410929000D0929100E0922802109396
:100F70002702009326021093970000939600809119
:100F80009100887F8093910080919100826080938E
:100F90009100D0932A02C0932902F09271007894B4
:100FA0008091910090912802892B809391000E945A
:100FB0001204D7CFE4E3F2E01382128288EE93E0CA
:100FC000A0E0B0E084839583A683B78384E092E0B9
:100FD0009183808385EC90E09587848784EC90E012
:100FE0009787868780EC90E0918B808B81EC90E0F6
:100FF000938B828B82EC90E0958B848B86EC90E0D7
:10100000978B868B118E128E138E148E08955058E6
:10101000BB27AA270E941F080C9499090E948B09DC
:1010200038F00E94920920F039F49F3F19F426F419
:101030000C9488090EF4E095E7FB0C948209E92FE3
:101040000E94AA0958F3BA17620773078407950725
:1010500020F079F4A6F50C94CC090EF4E0950B2E53
:10106000BA2FA02D0B01B90190010C01CA01A001FA
:101070001124FF27591B99F0593F50F4503E68F155
:101080001A16F040A22F232F342F4427585FF3CF96
:10109000469537952795A795F0405395C9F77EF467
:1010A0001F16BA0B620B730B840BBAF09150A1F0B0
:1010B000FF0FBB1F661F771F881FC2F70EC0BA0F36
:1010C000621F731F841F48F4879577956795B795BE
:1010D000F7959E3F08F0B0CF9395880F08F09927B9
:1010E000EE0F9795879508950E945E0908F481E0B8
:1010F00008950E948D080C9499090E94920958F055
:101100000E948B0940F029F45F3F29F00C9482097A
:1011100051110C94CD090C9488090E94AA0968F316
:101120009923B1F3552391F3951B550BBB27AA27A0
:1011300062177307840738F09F5F5F4F220F331FDA
:10114000441FAA1FA9F335D00E2E3AF0E0E832D0A2
:1011500091505040E695001CCAF72BD0FE2F29D0A5
:10116000660F771F881FBB1F261737074807AB0777
:10117000B0E809F0BB0B802DBF01FF2793585F4FEC
:101180003AF09E3F510578F00C9482090C94CD09F9
:101190005F3FE4F3983ED4F3869577956795B795CE
:1011A000F7959F5FC9F7880F911D9695879597F9D9
:1011B0000895E1E0660F771F881FBB1F6217730752
:1011C0008407BA0720F0621B730B840BBA0BEE1F67
:1011D00088F7E09508950E94F2086894B1110C9484
:1011E000CD0908950E94B20988F09F5798F0B92F51
:1011F0009927B751B0F0E1F0660F771F881F991F4C
:101200001AF0BA95C9F714C0B13091F00E94CC0918
:10121000B1E008950C94CC09672F782F8827B85F28
:1012200039F0B93FCCF3869577956795B395D9F7A3
:101230003EF490958095709561957F4F8F4F9F4FAD
:101240000895E89409C097FB3EF4909580957095B9
:1012500061957F4F8F4F9F4F9923A9F0F92F96E902
:10126000BB279395F695879577956795B795F11177
:10127000F8CFFAF4BB0F11F460FF1BC06F5F7F4F14
:101280008F4F9F4F16C0882311F096E911C0772326
:1012900021F09EE8872F762F05C0662371F096E82F
:1012A000862F70E060E02AF09A95660F771F881FFE
:1012B000DAF7880F9695879597F90895990F0008A2
:1012C000550FAA0BE0E8FEEF16161706E807F90718
:1012D000C0F012161306E407F50798F0621B730BB3
:1012E000840B950B39F40A2661F0232B242B252B34
:1012F00021F408950A2609F4A140A6958FEF811DD7
:10130000811D089597F99F6780E870E060E0089577
:101310009FEF80EC089500240A941616170618060D
:101320000906089500240A941216130614060506E9
:101330000895092E0394000C11F4882352F0BB0F7A
:1013400040F4BF2B11F460FF04C06F5F7F4F8F4FDD
:101350009F4F089557FD9058440F551F59F05F3F18
:1013600071F04795880F97FB991F61F09F3F79F0C7
:1013700087950895121613061406551FF2CF469549
:10138000F1DF08C0161617061806991FF1CF8695CB
:101390007105610508940895E894BB2766277727AF
:1013A000CB0197F908950E945E0908F48FEF089524
:1013B0000E94EB090C9499090E948B0938F00E9455
:1013C000920920F0952311F00C9482090C9488095D
:1013D00011240C94CD090E94AA0970F3959FC1F3C2
:1013E000950F50E0551F629FF001729FBB27F00DD3
:1013F000B11D639FAA27F00DB11DAA1F649F662728
:10140000B00DA11D661F829F2227B00DA11D621F76
:10141000739FB00DA11D621F839FA00D611D221F30
:10142000749F3327A00D611D231F849F600D211D14
:10143000822F762F6A2F11249F5750409AF0F1F097
:1014400088234AF0EE0FFF1FBB1F661F771F881F00
:1014500091505040A9F79E3F510580F00C948209AD
:101460000C94CD095F3FE4F3983ED4F386957795CD
:101470006795B795F795E7959F5FC1F7FE2B880FA6
:10148000911D9695879597F908959F930E94540A08
:101490000F9007FCEE5F0C947D0A0E945E09880B9A
:1014A000990B08950C9488090E94B209D8F3E89426
:1014B000E0E0BB279F57F0F02AED3FE049EC06C083
:1014C000EE0FBB0F661F771F881F28F0B23A620726
:1014D0007307840728F0B25A620B730B840BE395F1
:1014E0009A9572F7803830F49A95BB0F661F771F74
:1014F000881FD2F790480C94930AEF93E0FF07C03F
:10150000A2EA2AED3FE049EC5FEB0E941F080E942F
:1015100099090F90039401FC9058E4EEF0E00C94CC
:101520009F0A9F3F31F0915020F4879577956795FA
:10153000B795880F911D9695879597F908959F9374
:101540008F937F936F93FF93EF939B01AC010E9466
:10155000D809EF91FF910E94B30A2F913F914F91CB
:101560005F910C94D809DF93CF931F930F93FF9251
:10157000EF92DF927B018C01689406C0DA2EEF01B6
:101580000E94EB09FE01E894A591259135914591C2
:101590005591A6F3EF010E941F08FE019701A801D3
:1015A000DA9469F7DF90EF90FF900F911F91CF9140
:1015B000DF910895A1E21A2EAA1BBB1BFD010DC0ED
:1015C000AA1FBB1FEE1FFF1FA217B307E407F507F3
:1015D00020F0A21BB30BE40BF50B661F771F881FCF
:1015E000991F1A9469F760957095809590959B0165
:1015F000AC01BD01CF010895EE0FFF1F881F8BBF07
:0C1600000790F691E02D1994F894FFCFAC
:10160C0000000000A5030F033C03F2036D034B0322
:10161C005F036E616E00696E66006F7666000D0A80
:02162C000000BC
:00000001FF
