:100000000C9424010C9445010C9445010C94450179
:100010000C9445010C9445010C9445010C94450148
:100020000C9445010C9445010C9445010C94450138
:100030000C9445010C9445010C9445010C94450128
:100040000C9445010C9445010C9445010C94450118
:100050000C9445010C9445010C9445010C94D90174
:100060000C9445010C9445010C9445010C944501F8
:100070000C9445010C9445010C9445010C944501E8
:100080000C9445010C9445010C9445010C944501D8
:100090000C9445010C9445010C9445010C944501C8
:1000A0000C9445010C9445010C9445010C944501B8
:1000B0000C9445010C9445010C9445010C944501A8
:1000C0000C9445010C9445010C9445010C94450198
:1000D0000C9445010C9445010C9445010C94450188
:1000E0000C9445010C949C010C946F010C947301C9
:1000F0000C947A010C9465010C946B010C947701BB
:100100000C9480010C9498010C94AA010C94A60103
:100110000C948A010C94A5010C948E010C9484011A
:100120000C9492010C94A0010000210024002700EF
:100130002A002D00300033000101000004010701F6
:100140000A01000020002300260029002C002F00B7
:100150003200000100000301060109010000220035
:10016000250028002B002E00310034000201000081
:10017000050108010B010505050507050808080824
:10018000020202020A0A080804040404010101012F
:10019000010101010303030303030303040707072A
:1001A0000C0C0C0C0C0C0C0C0202020206060606CF
:1001B000060606060B0B0B0B0B0B0B0B010210209C
:1001C000200808102040102040800201020108048D
:1001D0000201010204081020408080402010080421
:1001E000020180040201804020100804020108047A
:1001F00002010102040810204080010204081020BE
:10020000408000000A0B02090C0D0E0807030401D0
:1002100000000000000000000000000000000000DE
:1002200000000000000000000000000000001211AB
:1002300010000000000000000000000000000000AE
:10024000000000000000000011241FBECFEFD1E22B
:10025000DEBFCDBF00E00CBF12E0A0E0B2E0EAE8F4
:10026000F6E000E00BBF02C007900D92A230B1078C
:10027000D9F722E0A2E0B2E001C01D92AF30B20790
:10028000E1F70E9423020C9443030C940000815078
:10029000823108F05AC0E82FF0E08827ED5AFE4F6F
:1002A0008F4F0C943B037301770165016B016F0164
:1002B000A5017A01800184018A018E0192019801D1
:1002C0009C01A501A001A601AA01809180008F7761
:1002D000809380000895809180008F7DF9CF809178
:1002E0008000877FF5CF84B58F7784BD089584B56E
:1002F0008F7DFBCF8091B0008F778093B000089501
:100300008091B0008F7DF9CF809190008F7780939E
:1003100090000895809190008F7DF9CF809190009A
:10032000877FF5CF8091A0008F778093A0000895FC
:100330008091A0008F7DF9CF8091A000877FF5CFBD
:10034000809120018F778093200108958091200172
:100350008F7DF9CF80912001877FF5CF1F93CF93B9
:10036000DF93EFE0F2E09491E9ECF1E0D491E3E87F
:10037000F1E0C491CC23B9F0182F992319F0892FFB
:100380000E944701EC2FF0E0EE0FFF1FE45AFE4FF2
:10039000A591B4918FB7F894EC91111108C0D09544
:1003A000DE23DC938FBFDF91CF911F910895DE2B69
:1003B000F8CF1F920F920FB60F9211242F933F93F5
:1003C0008F939F93AF93BF9380910B0290910C02F8
:1003D000A0910D02B0910E0230910A0223E0230F8A
:1003E0002D3758F50196A11DB11D20930A02809367
:1003F0000B0290930C02A0930D02B0930E02809119
:10040000060290910702A0910802B091090201969C
:10041000A11DB11D8093060290930702A0930802CC
:10042000B0930902BF91AF919F918F913F912F910E
:100430000F900FBE0F901F90189526E8230F02967D
:10044000A11DB11DD2CF789484B5826084BD84B5DE
:10045000816084BD85B5826085BD85B5816085BDBF
:1004600080916E00816080936E0010928100809177
:1004700081008260809381008091810081608093FF
:100480008100809180008160809380008091B10024
:1004900084608093B1008091B00081608093B0004F
:1004A00080919100826080939100809191008160A1
:1004B0008093910080919000816080939000809162
:1004C000A10082608093A1008091A100816080934F
:1004D000A1008091A00081608093A0008091210103
:1004E00082608093210180912101816080932101AC
:1004F0008091200181608093200180917A00846046
:1005000080937A0080917A00826080937A00809153
:100510007A00816080937A0080917A00806880936D
:100520007A001092C100CEEBD1E0FE01249108E7E1
:1005300011E0F80184918823C9F090E0880F991F99
:10054000FC01E85DFE4FA591B491FC01E45AFE4F19
:10055000459154913FB7F8949C91822F80959823B0
:100560009C93FA019081892380833FBFE9ECF1E0FD
:100570002491E3E8F1E08491882399F090E0880FDA
:10058000991FFC01E85DFE4FA591B491FC01E45A6E
:10059000FE4F859194918FB7F894EC91E22BEC93F8
:1005A0008FBF809100020E94AE0194E0E92E92E09C
:1005B000F92E20E0C22E20E0D22EF7018491FE0118
:1005C000A490F801B490B11040C02FB7F894809176
:1005D0000B0290910C02A0910D02B0910E022FBF60
:1005E0004091020250910302609104027091050251
:1005F000841B950BA60BB70B893C9105A105B10592
:1006000098F12FB7F89480910B0290910C02A09171
:100610000D02B0910E022FBF80930202909303024D
:10062000A0930402B093050281E020910002309172
:100630000102232B09F080E0282F30E030930102E3
:10064000209300020E94AE010FC081110E94470159
:10065000EB2DF0E0EE0FFF1FEE5BFE4FA591B49186
:100660008C91A82209F4B1CFC114D10409F4A5CF0B
:100670000E940000A2CFEE0FFF1F881F8BBF0790C4
:0A068000F691E02D1994F894FFCFD5
:02068A0001006D
:00000001FF
